{
  "_format": "hh-sol-artifact-1",
  "contractName": "YieldCircleVault",
  "sourceName": "contracts/YieldCircleVault.sol",
  "abi": [
    {
      "anonymous": false,
      "inputs": [
        {
          "indexed": true,
          "internalType": "uint256",
          "name": "circleId",
          "type": "uint256"
        },
        {
          "indexed": true,
          "internalType": "address",
          "name": "recipient",
          "type": "address"
        }
      ],
      "name": "CircleCompleted",
      "type": "event"
    },
    {
      "anonymous": false,
      "inputs": [
        {
          "indexed": true,
          "internalType": "uint256",
          "name": "circleId",
          "type": "uint256"
        },
        {
          "indexed": true,
          "internalType": "address",
          "name": "user",
          "type": "address"
        },
        {
          "indexed": false,
          "internalType": "uint256",
          "name": "amount",
          "type": "uint256"
        }
      ],
      "name": "Deposited",
      "type": "event"
    },
    {
      "anonymous": false,
      "inputs": [
        {
          "indexed": true,
          "internalType": "uint256",
          "name": "circleId",
          "type": "uint256"
        },
        {
          "indexed": false,
          "internalType": "uint256",
          "name": "roundNumber",
          "type": "uint256"
        }
      ],
      "name": "NewRoundStarted",
      "type": "event"
    },
    {
      "anonymous": false,
      "inputs": [
        {
          "indexed": true,
          "internalType": "uint256",
          "name": "circleId",
          "type": "uint256"
        },
        {
          "indexed": true,
          "internalType": "address",
          "name": "recipient",
          "type": "address"
        },
        {
          "indexed": false,
          "internalType": "uint256",
          "name": "claimedAmount",
          "type": "uint256"
        },
        {
          "indexed": false,
          "internalType": "uint256",
          "name": "redepositedAmount",
          "type": "uint256"
        }
      ],
      "name": "PotClaimed",
      "type": "event"
    },
    {
      "anonymous": false,
      "inputs": [
        {
          "indexed": true,
          "internalType": "uint256",
          "name": "circleId",
          "type": "uint256"
        },
        {
          "indexed": true,
          "internalType": "address",
          "name": "user",
          "type": "address"
        },
        {
          "indexed": false,
          "internalType": "uint256",
          "name": "amount",
          "type": "uint256"
        }
      ],
      "name": "Withdrawn",
      "type": "event"
    },
    {
      "inputs": [
        {
          "internalType": "uint256",
          "name": "",
          "type": "uint256"
        },
        {
          "internalType": "uint256",
          "name": "",
          "type": "uint256"
        }
      ],
      "name": "circleParticipants",
      "outputs": [
        {
          "internalType": "address",
          "name": "",
          "type": "address"
        }
      ],
      "stateMutability": "view",
      "type": "function"
    },
    {
      "inputs": [
        {
          "internalType": "uint256",
          "name": "",
          "type": "uint256"
        }
      ],
      "name": "circles",
      "outputs": [
        {
          "internalType": "uint256",
          "name": "targetAmount",
          "type": "uint256"
        },
        {
          "internalType": "uint256",
          "name": "numParticipants",
          "type": "uint256"
        },
        {
          "internalType": "uint256",
          "name": "currentPot",
          "type": "uint256"
        },
        {
          "internalType": "address",
          "name": "currentRecipient",
          "type": "address"
        },
        {
          "internalType": "bool",
          "name": "isActive",
          "type": "bool"
        },
        {
          "internalType": "uint256",
          "name": "roundNumber",
          "type": "uint256"
        }
      ],
      "stateMutability": "view",
      "type": "function"
    },
    {
      "inputs": [
        {
          "internalType": "uint256",
          "name": "circleId",
          "type": "uint256"
        }
      ],
      "name": "claimPot",
      "outputs": [],
      "stateMutability": "nonpayable",
      "type": "function"
    },
    {
      "inputs": [
        {
          "internalType": "uint256",
          "name": "circleId",
          "type": "uint256"
        },
        {
          "internalType": "uint256",
          "name": "targetAmountPerPerson",
          "type": "uint256"
        }
      ],
      "name": "deposit",
      "outputs": [],
      "stateMutability": "payable",
      "type": "function"
    },
    {
      "inputs": [
        {
          "internalType": "uint256",
          "name": "circleId",
          "type": "uint256"
        }
      ],
      "name": "getCircle",
      "outputs": [
        {
          "internalType": "uint256",
          "name": "targetAmount",
          "type": "uint256"
        },
        {
          "internalType": "uint256",
          "name": "numParticipants",
          "type": "uint256"
        },
        {
          "internalType": "uint256",
          "name": "currentPot",
          "type": "uint256"
        },
        {
          "internalType": "address",
          "name": "currentRecipient",
          "type": "address"
        },
        {
          "internalType": "bool",
          "name": "isActive",
          "type": "bool"
        },
        {
          "internalType": "uint256",
          "name": "roundNumber",
          "type": "uint256"
        }
      ],
      "stateMutability": "view",
      "type": "function"
    },
    {
      "inputs": [
        {
          "internalType": "uint256",
          "name": "circleId",
          "type": "uint256"
        }
      ],
      "name": "getCircleParticipants",
      "outputs": [
        {
          "internalType": "address[]",
          "name": "",
          "type": "address[]"
        }
      ],
      "stateMutability": "view",
      "type": "function"
    },
    {
      "inputs": [
        {
          "internalType": "uint256",
          "name": "circleId",
          "type": "uint256"
        },
        {
          "internalType": "address",
          "name": "user",
          "type": "address"
        }
      ],
      "name": "getUserDeposit",
      "outputs": [
        {
          "internalType": "uint256",
          "name": "",
          "type": "uint256"
        }
      ],
      "stateMutability": "view",
      "type": "function"
    },
    {
      "inputs": [
        {
          "internalType": "uint256",
          "name": "",
          "type": "uint256"
        },
        {
          "internalType": "address",
          "name": "",
          "type": "address"
        }
      ],
      "name": "hasClaimed",
      "outputs": [
        {
          "internalType": "bool",
          "name": "",
          "type": "bool"
        }
      ],
      "stateMutability": "view",
      "type": "function"
    },
    {
      "inputs": [],
      "name": "nextCircleId",
      "outputs": [
        {
          "internalType": "uint256",
          "name": "",
          "type": "uint256"
        }
      ],
      "stateMutability": "view",
      "type": "function"
    },
    {
      "inputs": [
        {
          "internalType": "uint256",
          "name": "",
          "type": "uint256"
        },
        {
          "internalType": "address",
          "name": "",
          "type": "address"
        }
      ],
      "name": "userDeposits",
      "outputs": [
        {
          "internalType": "uint256",
          "name": "",
          "type": "uint256"
        }
      ],
      "stateMutability": "view",
      "type": "function"
    },
    {
      "inputs": [
        {
          "internalType": "uint256",
          "name": "circleId",
          "type": "uint256"
        },
        {
          "internalType": "uint256",
          "name": "amount",
          "type": "uint256"
        }
      ],
      "name": "withdraw",
      "outputs": [],
      "stateMutability": "nonpayable",
      "type": "function"
    }
  ],
  "bytecode": "0x6080604052600160045534801561001557600080fd5b50611049806100256000396000f3fe60806040526004361061009c5760003560e01c806366a47f631161006457806366a47f631461020b578063873f6f9e1461022b578063bc5e0f3014610276578063cb625846146102d7578063e2bbb15814610304578063f9c516ea1461031757600080fd5b8063155fb888146100a1578063441a3e70146100de578063471cbff8146101005780634e0552441461012457806364ccecde14610144575b600080fd5b3480156100ad57600080fd5b506100c16100bc366004610e94565b61034c565b6040516001600160a01b0390911681526020015b60405180910390f35b3480156100ea57600080fd5b506100fe6100f9366004610e94565b610384565b005b34801561010c57600080fd5b5061011660045481565b6040519081526020016100d5565b34801561013057600080fd5b5061011661013f366004610eb6565b6105fb565b34801561015057600080fd5b506101d361015f366004610ef2565b600090815260036020818152604092839020835160c081018552815480825260018301549382018490526002830154958201869052938201546001600160a01b03811660608301819052600160a01b90910460ff1615156080830181905260049093015460a0909201829052939592949392565b604080519687526020870195909552938501929092526001600160a01b031660608401521515608083015260a082015260c0016100d5565b34801561021757600080fd5b506100fe610226366004610ef2565b610623565b34801561023757600080fd5b50610266610246366004610eb6565b600260209081526000928352604080842090915290825290205460ff1681565b60405190151581526020016100d5565b34801561028257600080fd5b506101d3610291366004610ef2565b6003602081905260009182526040909120805460018201546002830154938301546004909301549193909290916001600160a01b03821691600160a01b900460ff169086565b3480156102e357600080fd5b506102f76102f2366004610ef2565b610b44565b6040516100d59190610f0b565b6100fe610312366004610e94565b610bb0565b34801561032357600080fd5b50610116610332366004610eb6565b600060208181529281526040808220909352908152205481565b6001602052816000526040600020818154811061036857600080fd5b6000918252602090912001546001600160a01b03169150829050565b600081116103e85760405162461bcd60e51b815260206004820152602660248201527f576974686472617720616d6f756e74206d75737420626520677265617465722060448201526507468616e20360d41b60648201526084015b60405180910390fd5b600082815260036020819052604090912090810154600160a01b900460ff166104235760405162461bcd60e51b81526004016103df90610f58565b60038101546001600160a01b0316330361048e5760405162461bcd60e51b815260206004820152602660248201527f526563697069656e74206d75737420636c61696d20706f742c206e6f7420776960448201526574686472617760d01b60648201526084016103df565b6000838152602081815260408083203384529091529020548211156104ec5760405162461bcd60e51b8152602060048201526014602482015273496e73756666696369656e742062616c616e636560601b60448201526064016103df565b60008381526020818152604080832033845290915281208054849290610513908490610f9c565b925050819055508181600201600082825461052e9190610f9c565b9091555050604051600090339084908381818185875af1925050503d8060008114610575576040519150601f19603f3d011682016040523d82523d6000602084013e61057a565b606091505b50509050806105bd5760405162461bcd60e51b815260206004820152600f60248201526e151c985b9cd9995c8819985a5b1959608a1b60448201526064016103df565b604051838152339085907fcf7d23a3cbe4e8b36ff82fd1b05b1b17373dc7804b4ebbd6e2356716ef202372906020015b60405180910390a350505050565b6000828152602081815260408083206001600160a01b03851684529091529020545b92915050565b600081815260036020819052604090912090810154600160a01b900460ff1661065e5760405162461bcd60e51b81526004016103df90610f58565b60038101546001600160a01b031633146106ba5760405162461bcd60e51b815260206004820181905260248201527f4f6e6c792063757272656e7420726563697069656e742063616e20636c61696d60448201526064016103df565b600082815260026020908152604080832033845290915290205460ff16156107245760405162461bcd60e51b815260206004820152601a60248201527f416c726561647920636c61696d6564207468697320726f756e6400000000000060448201526064016103df565b60008160020154116107675760405162461bcd60e51b815260206004820152600c60248201526b506f7420697320656d70747960a01b60448201526064016103df565b600082815260208181526040808320338452909152902054806107cc5760405162461bcd60e51b815260206004820152601d60248201527f526563697069656e74206d7573742068617665206465706f736974656400000060448201526064016103df565b60008183600201546107de9190610f9c565b90506000811161083b5760405162461bcd60e51b815260206004820152602260248201527f4e6f20616d6f756e7420746f20636c61696d2061667465722072656465706f736044820152611a5d60f21b60648201526084016103df565b60008481526002602081815260408084203385528252808420805460ff19166001908117909155928701869055878452918152818320805483518184028101840190945280845290918301828280156108bd57602002820191906000526020600020905b81546001600160a01b0316815260019091019060200180831161089f575b505050505090506000805b825181101561091d57336001600160a01b03168382815181106108ed576108ed610faf565b60200260200101516001600160a01b03160361090b5780915061091d565b8061091581610fc5565b9150506108c8565b50815160009061092e836001610fde565b6109389190610ff1565b905082818151811061094c5761094c610faf565b60200260200101518660030160006101000a8154816001600160a01b0302191690836001600160a01b0316021790555060005b83518110156109f0576000888152600260205260408120855182908790859081106109ac576109ac610faf565b6020908102919091018101516001600160a01b03168252810191909152604001600020805460ff1916911515919091179055806109e881610fc5565b91505061097f565b50600486018054906000610a0383610fc5565b90915550506040805185815260208101879052339189917fa9a0b68afc81ffe57550850ec1bd16b57352da5eb18e699660dedcc9289a2649910160405180910390a3604051339088907f1061a1e46437109d71bfc866c12f0f216f3091f631309520a770e3b6799d52b390600090a3867ffee93879a5e67f5411452c57c1bc6f494462a67847f16a8ae120e5ff78e8b9c38760040154604051610aa891815260200190565b60405180910390a2604051600090339086908381818185875af1925050503d8060008114610af2576040519150601f19603f3d011682016040523d82523d6000602084013e610af7565b606091505b5050905080610b3a5760405162461bcd60e51b815260206004820152600f60248201526e151c985b9cd9995c8819985a5b1959608a1b60448201526064016103df565b5050505050505050565b600081815260016020908152604091829020805483518184028101840190945280845260609392830182828015610ba457602002820191906000526020600020905b81546001600160a01b03168152600190910190602001808311610b86575b50505050509050919050565b60003411610c0e5760405162461bcd60e51b815260206004820152602560248201527f4465706f73697420616d6f756e74206d75737420626520677265617465722074604482015264068616e20360dc1b60648201526084016103df565b811580610c35575060008281526003602081905260409091200154600160a01b900460ff16155b15610cfb5760048054906000610c4a83610fc5565b9190505591506040518060c0016040528060008311610c695734610c6b565b825b815260006020808301829052604080840183905260608085018490526001608080870182905260a09687018290528986526003808652958490208851815594880151918501919091559186015160028401558501519282018054918601511515600160a01b026001600160a81b03199092166001600160a01b039490941693909317179091559101516004909101555b600082815260036020819052604090912090810154600160a01b900460ff16610d365760405162461bcd60e51b81526004016103df90610f58565b60008381526020818152604080832033845290915281208054349290610d5d908490610fde565b9250508190555034816002016000828254610d789190610fde565b909155505060038101546001600160a01b0316610da4576003810180546001600160a01b031916331790555b600160005b600085815260016020526040902054811015610e17576000858152600160205260409020805433919083908110610de257610de2610faf565b6000918252602090912001546001600160a01b031603610e055760009150610e17565b80610e0f81610fc5565b915050610da9565b508015610e605760008481526001602081815260408320805480840182559084529083200180546001600160a01b031916331790558301805491610e5a83610fc5565b91905055505b604051348152339085907f1599c0fcf897af5babc2bfcf707f5dc050f841b044d97c3251ecec35b9abf80b906020016105ed565b60008060408385031215610ea757600080fd5b50508035926020909101359150565b60008060408385031215610ec957600080fd5b8235915060208301356001600160a01b0381168114610ee757600080fd5b809150509250929050565b600060208284031215610f0457600080fd5b5035919050565b6020808252825182820181905260009190848201906040850190845b81811015610f4c5783516001600160a01b031683529284019291840191600101610f27565b50909695505050505050565b602080825260149082015273436972636c65206973206e6f742061637469766560601b604082015260600190565b634e487b7160e01b600052601160045260246000fd5b8181038181111561061d5761061d610f86565b634e487b7160e01b600052603260045260246000fd5b600060018201610fd757610fd7610f86565b5060010190565b8082018082111561061d5761061d610f86565b60008261100e57634e487b7160e01b600052601260045260246000fd5b50069056fea2646970667358221220ac6304eb3a88686f64b8a9dfbc0bc4e583658b9b631524ada47b627f55bc2fd064736f6c63430008140033",
  "linkReferences": {},
  "deployedLinkReferences": {}
}